{
  "contractName": "BatchSend",
  "abi": [
    {
      "constant": false,
      "inputs": [
        {
          "internalType": "address",
          "name": "_token",
          "type": "address"
        },
        {
          "internalType": "address[]",
          "name": "_recipients",
          "type": "address[]"
        },
        {
          "internalType": "uint256",
          "name": "_amount",
          "type": "uint256"
        },
        {
          "internalType": "bytes",
          "name": "_data",
          "type": "bytes"
        }
      ],
      "name": "send",
      "outputs": [],
      "payable": false,
      "stateMutability": "nonpayable",
      "type": "function"
    },
    {
      "constant": false,
      "inputs": [
        {
          "internalType": "address",
          "name": "_token",
          "type": "address"
        },
        {
          "internalType": "address[]",
          "name": "_recipients",
          "type": "address[]"
        },
        {
          "internalType": "uint256[]",
          "name": "_amounts",
          "type": "uint256[]"
        },
        {
          "internalType": "bytes",
          "name": "_data",
          "type": "bytes"
        }
      ],
      "name": "sendAmounts",
      "outputs": [],
      "payable": false,
      "stateMutability": "nonpayable",
      "type": "function"
    }
  ],
  "bytecode": "0x608060405234801561001057600080fd5b5061066d806100206000396000f3fe608060405234801561001057600080fd5b50600436106100365760003560e01c8063021ebbde1461003b57806314d90eb01461017b575b600080fd5b6101796004803603608081101561005157600080fd5b6001600160a01b038235169190810190604081016020820135600160201b81111561007b57600080fd5b82018360208201111561008d57600080fd5b803590602001918460208302840111600160201b831117156100ae57600080fd5b91908080602002602001604051908101604052809392919081815260200183836020028082843760009201919091525092958435959094909350604081019250602001359050600160201b81111561010557600080fd5b82018360208201111561011757600080fd5b803590602001918460018302840111600160201b8311171561013857600080fd5b91908080601f016020809104026020016040519081016040528093929190818152602001838380828437600092019190915250929550610333945050505050565b005b6101796004803603608081101561019157600080fd5b6001600160a01b038235169190810190604081016020820135600160201b8111156101bb57600080fd5b8201836020820111156101cd57600080fd5b803590602001918460208302840111600160201b831117156101ee57600080fd5b9190808060200260200160405190810160405280939291908181526020018383602002808284376000920191909152509295949360208101935035915050600160201b81111561023d57600080fd5b82018360208201111561024f57600080fd5b803590602001918460208302840111600160201b8311171561027057600080fd5b9190808060200260200160405190810160405280939291908181526020018383602002808284376000920191909152509295949360208101935035915050600160201b8111156102bf57600080fd5b8201836020820111156102d157600080fd5b803590602001918460018302840111600160201b831117156102f257600080fd5b91908080601f016020809104026020016040519081016040528093929190818152602001838380828437600092019190915250929550610477945050505050565b8360005b845181101561046f57816001600160a01b03166362ad1b833387848151811061035c57fe5b602002602001015187876040518563ffffffff1660e01b815260040180856001600160a01b03166001600160a01b03168152602001846001600160a01b03166001600160a01b031681526020018381526020018060200180602001838103835284818151815260200191508051906020019080838360005b838110156103ec5781810151838201526020016103d4565b50505050905090810190601f1680156104195780820380516001836020036101000a031916815260200191505b508381038252600081526020016020019650505050505050600060405180830381600087803b15801561044b57600080fd5b505af115801561045f573d6000803e3d6000fd5b5050600190920191506103379050565b505050505050565b81518351146104b75760405162461bcd60e51b81526004018080602001828103825260328152602001806106076032913960400191505060405180910390fd5b8360005b845181101561046f57816001600160a01b03166362ad1b83338784815181106104e057fe5b60200260200101518785815181106104f457fe5b6020026020010151876040518563ffffffff1660e01b815260040180856001600160a01b03166001600160a01b03168152602001846001600160a01b03166001600160a01b031681526020018381526020018060200180602001838103835284818151815260200191508051906020019080838360005b8381101561058357818101518382015260200161056b565b50505050905090810190601f1680156105b05780820380516001836020036101000a031916815260200191505b508381038252600081526020016020019650505050505050600060405180830381600087803b1580156105e257600080fd5b505af11580156105f6573d6000803e3d6000fd5b5050600190920191506104bb905056fe746865206c656e677468206f6620726563697069656e7420616e6420616d6f756e742073686f756c642062652073616d652ea265627a7a72315820102455b743ecf39eb0f68be620ebe78d4f45e66838ee2d7a8b54146e6339155a64736f6c63430005100032",
  "source": "pragma solidity >0.4.99 <0.6.0;\nimport \"@openzeppelin/contracts/cryptography/ECDSA.sol\";\nimport \"@openzeppelin/contracts/token/ERC777/ERC777.sol\";\nimport \"@openzeppelin/contracts/math/SafeMath.sol\";\ncontract BatchSend {\n    using SafeMath for uint256;\n    using ECDSA for bytes32;\n\n     /**\n     * Send a given amount of tokens to multiple recipients\n     * @param _token the address of the token contract\n     * @param _recipients the list of recipents\n     * @param _amount the amount of tokens to send to each recipient\n     * @param _data the data to attach to each send\n     */\n    function send(address _token, address[] memory _recipients, uint256 _amount, bytes memory _data) public {\n        // Send tokens\n        ERC777 token = ERC777(_token);\n        for (uint256 i = 0; i < _recipients.length; i++) {\n            token.operatorSend(msg.sender, _recipients[i], _amount, _data, \"\");\n        }\n    }\n\n    /**\n     * Send individual amounts of tokens to multiple recipients\n     * @param _token the address of the token contract\n     * @param _recipients the list of recipents\n     * @param _amounts the amount of tokens to send to each recipient\n     * @param _data the data to attach to each send\n     */\n    function sendAmounts(address _token, address[] memory _recipients, uint256[] memory _amounts, bytes memory _data) public {\n        require(_recipients.length == _amounts.length,\"the length of recipient and amount should be same.\");\n        ERC777 token = ERC777(_token);\n        for (uint256 i = 0; i < _recipients.length; i++) {\n            token.operatorSend(msg.sender, _recipients[i], _amounts[i], _data, \"\");\n        }\n    }\n\n}",
  "sourcePath": "/home/ubuntu/UMC-proj/contracts/BatchSend.sol",
  "compiler": {
    "name": "solc",
    "version": "0.5.16+commit.9c3226ce.Emscripten.clang"
  },
  "schemaVersion": "3.0.23",
  "updatedAt": "2020-04-19T17:12:19.395Z",
  "networkType": "ethereum",
  "devdoc": {
    "methods": {
      "send(address,address[],uint256,bytes)": {
        "params": {
          "_amount": "the amount of tokens to send to each recipient",
          "_data": "the data to attach to each send",
          "_recipients": "the list of recipents",
          "_token": "the address of the token contract"
        }
      },
      "sendAmounts(address,address[],uint256[],bytes)": {
        "params": {
          "_amounts": "the amount of tokens to send to each recipient",
          "_data": "the data to attach to each send",
          "_recipients": "the list of recipents",
          "_token": "the address of the token contract"
        }
      }
    }
  },
  "userdoc": {
    "methods": {
      "send(address,address[],uint256,bytes)": {
        "notice": "Send a given amount of tokens to multiple recipients"
      },
      "sendAmounts(address,address[],uint256[],bytes)": {
        "notice": "Send individual amounts of tokens to multiple recipients"
      }
    }
  }
}