{
  "contractName": "ChequeOperator",
  "abi": [
    {
      "constant": true,
      "inputs": [
        {
          "internalType": "address",
          "name": "",
          "type": "address"
        },
        {
          "internalType": "uint256",
          "name": "",
          "type": "uint256"
        }
      ],
      "name": "usedNonces",
      "outputs": [
        {
          "internalType": "bool",
          "name": "",
          "type": "bool"
        }
      ],
      "payable": false,
      "stateMutability": "view",
      "type": "function"
    },
    {
      "constant": false,
      "inputs": [
        {
          "internalType": "address",
          "name": "_token",
          "type": "address"
        },
        {
          "internalType": "address",
          "name": "_holder",
          "type": "address"
        },
        {
          "internalType": "address",
          "name": "_to",
          "type": "address"
        },
        {
          "internalType": "uint256",
          "name": "_amount",
          "type": "uint256"
        },
        {
          "internalType": "bytes",
          "name": "_data",
          "type": "bytes"
        },
        {
          "internalType": "uint256",
          "name": "_nonce",
          "type": "uint256"
        },
        {
          "internalType": "bytes",
          "name": "_sig",
          "type": "bytes"
        }
      ],
      "name": "sendByCheque",
      "outputs": [],
      "payable": false,
      "stateMutability": "nonpayable",
      "type": "function"
    },
    {
      "constant": true,
      "inputs": [
        {
          "internalType": "address",
          "name": "_token",
          "type": "address"
        },
        {
          "internalType": "address",
          "name": "_holder",
          "type": "address"
        },
        {
          "internalType": "address",
          "name": "_to",
          "type": "address"
        },
        {
          "internalType": "uint256",
          "name": "_amount",
          "type": "uint256"
        },
        {
          "internalType": "bytes",
          "name": "_data",
          "type": "bytes"
        },
        {
          "internalType": "uint256",
          "name": "_nonce",
          "type": "uint256"
        },
        {
          "internalType": "bytes",
          "name": "_sig",
          "type": "bytes"
        }
      ],
      "name": "getSigner",
      "outputs": [
        {
          "internalType": "address",
          "name": "",
          "type": "address"
        }
      ],
      "payable": false,
      "stateMutability": "view",
      "type": "function"
    },
    {
      "constant": true,
      "inputs": [
        {
          "internalType": "address",
          "name": "_token",
          "type": "address"
        },
        {
          "internalType": "address",
          "name": "_holder",
          "type": "address"
        },
        {
          "internalType": "address",
          "name": "_to",
          "type": "address"
        },
        {
          "internalType": "uint256",
          "name": "_amount",
          "type": "uint256"
        },
        {
          "internalType": "bytes",
          "name": "_data",
          "type": "bytes"
        },
        {
          "internalType": "uint256",
          "name": "_nonce",
          "type": "uint256"
        }
      ],
      "name": "getHash1",
      "outputs": [
        {
          "internalType": "bytes32",
          "name": "",
          "type": "bytes32"
        }
      ],
      "payable": false,
      "stateMutability": "view",
      "type": "function"
    },
    {
      "constant": true,
      "inputs": [
        {
          "internalType": "bytes32",
          "name": "_hash",
          "type": "bytes32"
        }
      ],
      "name": "getHash2",
      "outputs": [
        {
          "internalType": "bytes32",
          "name": "",
          "type": "bytes32"
        }
      ],
      "payable": false,
      "stateMutability": "view",
      "type": "function"
    },
    {
      "constant": true,
      "inputs": [
        {
          "internalType": "bytes32",
          "name": "_hash",
          "type": "bytes32"
        },
        {
          "internalType": "bytes",
          "name": "_sig",
          "type": "bytes"
        }
      ],
      "name": "getSignerFromHash",
      "outputs": [
        {
          "internalType": "address",
          "name": "",
          "type": "address"
        }
      ],
      "payable": false,
      "stateMutability": "view",
      "type": "function"
    }
  ],
  "bytecode": "0x608060405234801561001057600080fd5b50610b8a806100206000396000f3fe608060405234801561001057600080fd5b50600436106100625760003560e01c80633e92269c146100675780633eed4af91461009657806369c4e8cd146101645780636a8a6894146102d957806387a5feee14610319578063f5fd924c146103c4575b600080fd5b6100846004803603602081101561007d57600080fd5b503561051f565b60408051918252519081900360200190f35b610084600480360360c08110156100ac57600080fd5b6001600160a01b03823581169260208101358216926040820135909216916060820135919081019060a081016080820135600160201b8111156100ee57600080fd5b82018360208201111561010057600080fd5b803590602001918460018302840111600160201b8311171561012157600080fd5b91908080601f0160208091040260200160405190810160405280939291908181526020018383808284376000920191909152509295505091359250610530915050565b6102bd600480360360e081101561017a57600080fd5b6001600160a01b03823581169260208101358216926040820135909216916060820135919081019060a081016080820135600160201b8111156101bc57600080fd5b8201836020820111156101ce57600080fd5b803590602001918460018302840111600160201b831117156101ef57600080fd5b91908080601f01602080910402602001604051908101604052809392919081815260200183838082843760009201919091525092958435959094909350604081019250602001359050600160201b81111561024957600080fd5b82018360208201111561025b57600080fd5b803590602001918460018302840111600160201b8311171561027c57600080fd5b91908080601f016020809104026020016040519081016040528093929190818152602001838380828437600092019190915250929550610608945050505050565b604080516001600160a01b039092168252519081900360200190f35b610305600480360360408110156102ef57600080fd5b506001600160a01b038135169060200135610627565b604080519115158252519081900360200190f35b6102bd6004803603604081101561032f57600080fd5b81359190810190604081016020820135600160201b81111561035057600080fd5b82018360208201111561036257600080fd5b803590602001918460018302840111600160201b8311171561038357600080fd5b91908080601f016020809104026020016040519081016040528093929190818152602001838380828437600092019190915250929550610644945050505050565b61051d600480360360e08110156103da57600080fd5b6001600160a01b03823581169260208101358216926040820135909216916060820135919081019060a081016080820135600160201b81111561041c57600080fd5b82018360208201111561042e57600080fd5b803590602001918460018302840111600160201b8311171561044f57600080fd5b91908080601f01602080910402602001604051908101604052809392919081815260200183838082843760009201919091525092958435959094909350604081019250602001359050600160201b8111156104a957600080fd5b8201836020820111156104bb57600080fd5b803590602001918460018302840111600160201b831117156104dc57600080fd5b91908080601f01602080910402602001604051908101604052809392919081815260200183838082843760009201919091525092955061065d945050505050565b005b600061052a826108fc565b92915050565b600086868686868660405160200180876001600160a01b03166001600160a01b031660601b8152601401866001600160a01b03166001600160a01b031660601b8152601401856001600160a01b03166001600160a01b031660601b815260140184815260200183805190602001908083835b602083106105c15780518252601f1990920191602091820191016105a2565b51815160209384036101000a6000190180199092169116179052920193845250604080518085038152938201905282519201919091209d9c50505050505050505050505050565b60008061061a8989898989898961094d565b9998505050505050505050565b600060208181529281526040808220909352908152205460ff1681565b6000610656838363ffffffff610a4016565b9392505050565b6001600160a01b0385163014156106bb576040805162461bcd60e51b815260206004820152601b60248201527f63616e27742073656e6420746f207468697320616464726573732e0000000000604482015290519081900360640190fd5b60006106cc8888888888888861094d565b90506001600160a01b03811661071b576040805162461bcd60e51b815260206004820152600f60248201526e696e76616c6964206164647265737360881b604482015290519081900360640190fd5b866001600160a01b0316816001600160a01b03161461076b5760405162461bcd60e51b8152600401808060200182810382526027815260200180610b2f6027913960400191505060405180910390fd5b6001600160a01b03811660009081526020818152604080832086845290915290205460ff16156107d7576040805162461bcd60e51b81526020600482015260126024820152713737bab731b290323ab83634b1b0ba34b7b760711b604482015290519081900360640190fd5b6001600160a01b038082166000818152602081815260408083208884528252808320805460ff19166001179055516362ad1b8360e01b8152600481019384528a85166024820152604481018a905260a060648201908152895160a483015289518e968716956362ad1b839589958f958f958f959093608483019360c490930192870191908190849084905b8381101561087a578181015183820152602001610862565b50505050905090810190601f1680156108a75780820380516001836020036101000a031916815260200191505b508381038252600081526020016020019650505050505050600060405180830381600087803b1580156108d957600080fd5b505af11580156108ed573d6000803e3d6000fd5b50505050505050505050505050565b604080517f19457468657265756d205369676e6564204d6573736167653a0a333200000000602080830191909152603c8083019490945282518083039094018452605c909101909152815191012090565b6000610a3482610a288a8a8a8a8a8a60405160200180876001600160a01b03166001600160a01b031660601b8152601401866001600160a01b03166001600160a01b031660601b8152601401856001600160a01b03166001600160a01b031660601b815260140184815260200183805190602001908083835b602083106109e55780518252601f1990920191602091820191016109c6565b51815160209384036101000a60001901801990921691161790529201938452506040805180850381529382019052825192019190912095506108fc945050505050565b9063ffffffff610a4016565b98975050505050505050565b60008151604114610a535750600061052a565b60208201516040830151606084015160001a7f7fffffffffffffffffffffffffffffff5d576e7357a4501ddfe92f46681b20a0821115610a99576000935050505061052a565b8060ff16601b14158015610ab157508060ff16601c14155b15610ac2576000935050505061052a565b6040805160008152602080820180845289905260ff8416828401526060820186905260808201859052915160019260a0808401939192601f1981019281900390910190855afa158015610b19573d6000803e3d6000fd5b5050604051601f19015197965050505050505056fe7369676e65722073686f756c642062652073616d6520617320686f6c6465722061646472657373a265627a7a7231582033a2541419425fdc063a12e2793d579ebdac69a7874f822233a57bce4896dac964736f6c63430005100032",
  "source": "pragma solidity >0.4.99 <0.6.0;\nimport \"@openzeppelin/contracts/cryptography/ECDSA.sol\";\nimport \"@openzeppelin/contracts/token/ERC777/ERC777.sol\";\nimport \"@openzeppelin/contracts/math/SafeMath.sol\";\ncontract ChequeOperator {\n    using SafeMath for uint256;\n    using ECDSA for bytes32;\n\n    mapping(address => mapping(uint256 => bool)) public usedNonces; // For simple sendByCheque\n\n    /* Simple send by Checque */\n\n    function signerOfSimpleCheque(address _token, address _holder, address _to,\n    uint256 _amount, bytes memory _data, uint256 _nonce, bytes memory _sig)\n    private pure returns (address) {\n        return keccak256(abi.encodePacked(_token, _holder, _to, _amount, _data, _nonce)).toEthSignedMessageHash().recover(_sig);\n    }\n\n    function sendByCheque(address _token, address _holder, address _to, uint256 _amount, bytes memory _data, uint256 _nonce, bytes memory _sig)\n    public {\n        require(_to != address(this),\"can't send to this address.\");\n\n        // Check if signature is valid and get signer's address\n        address signer = signerOfSimpleCheque(_token, _holder, _to, _amount, _data, _nonce, _sig);\n        require(signer != address(0),\"invalid address\");\n        require(signer == _holder,\"signer should be same as holder address\");\n\n        // Mark this cheque as used\n        require (!usedNonces[signer][_nonce],\"nounce duplication\");\n        usedNonces[signer][_nonce] = true;\n\n        // Send tokens\n        ERC777 token = ERC777(_token);\n        token.operatorSend(signer, _to, _amount, _data, \"\");\n    }\n    function getSigner(address _token, address _holder, address _to, uint256 _amount, bytes memory _data, uint256 _nonce, bytes memory _sig)\n    public view returns(address) {\n        // Check if signature is valid and get signer's address\n        address signer = signerOfSimpleCheque(_token, _holder, _to, _amount, _data, _nonce, _sig);\n        return signer;\n    }\n    function getHash1(address _token, address _holder, address _to, uint256 _amount, bytes memory _data, uint256 _nonce)\n    public view returns(bytes32) {\n        return keccak256(abi.encodePacked(_token, _holder, _to, _amount, _data, _nonce));\n    }\n    function getHash2(bytes32 _hash) public view returns(bytes32){\n        return _hash.toEthSignedMessageHash();\n    }\n    function getSignerFromHash(bytes32 _hash, bytes memory _sig) public view returns(address){\n        return _hash.recover(_sig);\n    }\n}",
  "sourcePath": "/home/ubuntu/UMC-proj/contracts/ChequeOperator.sol",
  "compiler": {
    "name": "solc",
    "version": "0.5.16+commit.9c3226ce.Emscripten.clang"
  },
  "schemaVersion": "3.0.23",
  "updatedAt": "2020-04-19T17:12:19.377Z",
  "networkType": "ethereum",
  "devdoc": {
    "methods": {}
  },
  "userdoc": {
    "methods": {}
  }
}