{
  "contractName": "EBTC",
  "abi": [
    {
      "inputs": [],
      "payable": false,
      "stateMutability": "nonpayable",
      "type": "constructor"
    },
    {
      "anonymous": false,
      "inputs": [
        {
          "indexed": true,
          "internalType": "address",
          "name": "_owner",
          "type": "address"
        },
        {
          "indexed": true,
          "internalType": "address",
          "name": "_spender",
          "type": "address"
        },
        {
          "indexed": false,
          "internalType": "uint256",
          "name": "_value",
          "type": "uint256"
        }
      ],
      "name": "Approval",
      "type": "event"
    },
    {
      "anonymous": false,
      "inputs": [
        {
          "indexed": true,
          "internalType": "address",
          "name": "_from",
          "type": "address"
        },
        {
          "indexed": true,
          "internalType": "address",
          "name": "_to",
          "type": "address"
        },
        {
          "indexed": false,
          "internalType": "uint256",
          "name": "_value",
          "type": "uint256"
        }
      ],
      "name": "Transfer",
      "type": "event"
    },
    {
      "anonymous": false,
      "inputs": [
        {
          "indexed": true,
          "internalType": "address",
          "name": "_spender",
          "type": "address"
        },
        {
          "indexed": true,
          "internalType": "address",
          "name": "_from",
          "type": "address"
        },
        {
          "indexed": true,
          "internalType": "address",
          "name": "_to",
          "type": "address"
        },
        {
          "indexed": false,
          "internalType": "uint256",
          "name": "_value",
          "type": "uint256"
        }
      ],
      "name": "TransferFrom",
      "type": "event"
    },
    {
      "payable": true,
      "stateMutability": "payable",
      "type": "fallback"
    },
    {
      "constant": true,
      "inputs": [
        {
          "internalType": "address",
          "name": "",
          "type": "address"
        },
        {
          "internalType": "address",
          "name": "",
          "type": "address"
        }
      ],
      "name": "allowed",
      "outputs": [
        {
          "internalType": "uint256",
          "name": "",
          "type": "uint256"
        }
      ],
      "payable": false,
      "stateMutability": "view",
      "type": "function"
    },
    {
      "constant": true,
      "inputs": [
        {
          "internalType": "address",
          "name": "",
          "type": "address"
        }
      ],
      "name": "balanceOf",
      "outputs": [
        {
          "internalType": "uint256",
          "name": "",
          "type": "uint256"
        }
      ],
      "payable": false,
      "stateMutability": "view",
      "type": "function"
    },
    {
      "constant": true,
      "inputs": [],
      "name": "decimals",
      "outputs": [
        {
          "internalType": "uint8",
          "name": "",
          "type": "uint8"
        }
      ],
      "payable": false,
      "stateMutability": "view",
      "type": "function"
    },
    {
      "constant": true,
      "inputs": [],
      "name": "name",
      "outputs": [
        {
          "internalType": "string",
          "name": "",
          "type": "string"
        }
      ],
      "payable": false,
      "stateMutability": "view",
      "type": "function"
    },
    {
      "constant": true,
      "inputs": [],
      "name": "symbol",
      "outputs": [
        {
          "internalType": "string",
          "name": "",
          "type": "string"
        }
      ],
      "payable": false,
      "stateMutability": "view",
      "type": "function"
    },
    {
      "constant": true,
      "inputs": [],
      "name": "totalSupply",
      "outputs": [
        {
          "internalType": "uint256",
          "name": "",
          "type": "uint256"
        }
      ],
      "payable": false,
      "stateMutability": "view",
      "type": "function"
    },
    {
      "constant": false,
      "inputs": [
        {
          "internalType": "address",
          "name": "_to",
          "type": "address"
        },
        {
          "internalType": "uint256",
          "name": "_value",
          "type": "uint256"
        }
      ],
      "name": "transfer",
      "outputs": [
        {
          "internalType": "bool",
          "name": "success",
          "type": "bool"
        }
      ],
      "payable": false,
      "stateMutability": "nonpayable",
      "type": "function"
    },
    {
      "constant": false,
      "inputs": [
        {
          "internalType": "address",
          "name": "_from",
          "type": "address"
        },
        {
          "internalType": "address",
          "name": "_to",
          "type": "address"
        },
        {
          "internalType": "uint256",
          "name": "_value",
          "type": "uint256"
        }
      ],
      "name": "transferFrom",
      "outputs": [
        {
          "internalType": "bool",
          "name": "success",
          "type": "bool"
        }
      ],
      "payable": false,
      "stateMutability": "nonpayable",
      "type": "function"
    },
    {
      "constant": false,
      "inputs": [
        {
          "internalType": "address[]",
          "name": "_toAddresses",
          "type": "address[]"
        },
        {
          "internalType": "uint256[]",
          "name": "_amounts",
          "type": "uint256[]"
        }
      ],
      "name": "multiPartyTransfer",
      "outputs": [],
      "payable": false,
      "stateMutability": "nonpayable",
      "type": "function"
    },
    {
      "constant": false,
      "inputs": [
        {
          "internalType": "address",
          "name": "_from",
          "type": "address"
        },
        {
          "internalType": "address[]",
          "name": "_toAddresses",
          "type": "address[]"
        },
        {
          "internalType": "uint256[]",
          "name": "_amounts",
          "type": "uint256[]"
        }
      ],
      "name": "multiPartyTransferFrom",
      "outputs": [],
      "payable": false,
      "stateMutability": "nonpayable",
      "type": "function"
    },
    {
      "constant": false,
      "inputs": [
        {
          "internalType": "address",
          "name": "_spender",
          "type": "address"
        },
        {
          "internalType": "uint256",
          "name": "_value",
          "type": "uint256"
        }
      ],
      "name": "approve",
      "outputs": [
        {
          "internalType": "bool",
          "name": "success",
          "type": "bool"
        }
      ],
      "payable": false,
      "stateMutability": "nonpayable",
      "type": "function"
    },
    {
      "constant": true,
      "inputs": [
        {
          "internalType": "address",
          "name": "_owner",
          "type": "address"
        },
        {
          "internalType": "address",
          "name": "_spender",
          "type": "address"
        }
      ],
      "name": "allowance",
      "outputs": [
        {
          "internalType": "uint256",
          "name": "remaining",
          "type": "uint256"
        }
      ],
      "payable": false,
      "stateMutability": "view",
      "type": "function"
    }
  ],
  "bytecode": "0x608060405234801561001057600080fd5b50336000908152602081905260409020660775f05a0740009055610a7d806100396000396000f3fe6080604052600436106100a75760003560e01c80636e96433f116100645780636e96433f1461025357806370a082311461039557806395d89b41146103c8578063a9059cbb146103dd578063b22c14c714610416578063dd62ed3e14610546576100a7565b806306fdde03146100ac578063095ea7b31461013657806318160ddd1461018357806323b872dd146101aa578063313ce567146101ed5780635c65816514610218575b600080fd5b3480156100b857600080fd5b506100c1610581565b6040805160208082528351818301528351919283929083019185019080838360005b838110156100fb5781810151838201526020016100e3565b50505050905090810190601f1680156101285780820380516001836020036101000a031916815260200191505b509250505060405180910390f35b34801561014257600080fd5b5061016f6004803603604081101561015957600080fd5b506001600160a01b0381351690602001356105a1565b604080519115158252519081900360200190f35b34801561018f57600080fd5b5061019861061e565b60408051918252519081900360200190f35b3480156101b657600080fd5b5061016f600480360360608110156101cd57600080fd5b506001600160a01b03813581169160208101359091169060400135610629565b3480156101f957600080fd5b506102026107ef565b6040805160ff9092168252519081900360200190f35b34801561022457600080fd5b506101986004803603604081101561023b57600080fd5b506001600160a01b03813581169160200135166107f4565b34801561025f57600080fd5b506103936004803603606081101561027657600080fd5b6001600160a01b038235169190810190604081016020820135600160201b8111156102a057600080fd5b8201836020820111156102b257600080fd5b803590602001918460208302840111600160201b831117156102d357600080fd5b9190808060200260200160405190810160405280939291908181526020018383602002808284376000920191909152509295949360208101935035915050600160201b81111561032257600080fd5b82018360208201111561033457600080fd5b803590602001918460208302840111600160201b8311171561035557600080fd5b919080806020026020016040519081016040528093929190818152602001838360200280828437600092019190915250929550610811945050505050565b005b3480156103a157600080fd5b50610198600480360360208110156103b857600080fd5b50356001600160a01b0316610883565b3480156103d457600080fd5b506100c1610895565b3480156103e957600080fd5b5061016f6004803603604081101561040057600080fd5b506001600160a01b0381351690602001356108b5565b34801561042257600080fd5b506103936004803603604081101561043957600080fd5b810190602081018135600160201b81111561045357600080fd5b82018360208201111561046557600080fd5b803590602001918460208302840111600160201b8311171561048657600080fd5b9190808060200260200160405190810160405280939291908181526020018383602002808284376000920191909152509295949360208101935035915050600160201b8111156104d557600080fd5b8201836020820111156104e757600080fd5b803590602001918460208302840111600160201b8311171561050857600080fd5b91908080602002602001604051908101604052809392919081815260200183836020028082843760009201919091525092955061098a945050505050565b34801561055257600080fd5b506101986004803603604081101561056957600080fd5b506001600160a01b03813581169160200135166109fa565b604051806040016040528060048152602001636542544360e01b81525081565b60006001600160a01b0383166105b657600080fd5b3360008181526001602090815260408083206001600160a01b03881680855290835292819020869055805186815290519293927f8c5be1e5ebec7d5bd14f71427d1e84f3dd0314c0f7b2291e5b200ac8c7c3b925929181900390910190a35060015b92915050565b660775f05a07400081565b60006001600160a01b03831661063e57600080fd5b6001600160a01b03831630141561065457600080fd5b6001600160a01b0384166000908152600160209081526040808320338452909152902054808311158061068f57506001600160a01b03851633145b61069857600080fd5b6001600160a01b0384166000908152602081905260409020546106c1908463ffffffff610a2516565b6001600160a01b0380861660009081526020819052604080822093909355908716815220546106f6908463ffffffff610a3416565b6001600160a01b0386166000908152602081815260408083209390935560018152828220338352905220546000191480159061073b57506001600160a01b0385163314155b15610799576001600160a01b0385166000908152600160209081526040808320338452909152902054610774908463ffffffff610a3416565b6001600160a01b03861660009081526001602090815260408083203384529091529020555b836001600160a01b0316856001600160a01b03167fddf252ad1be2c89b69c2b068fc378daa952ba7f163c4a11628f55a4df523b3ef856040518082815260200191505060405180910390a3506001949350505050565b600881565b600160209081526000928352604080842090915290825290205481565b60ff8251111561082057600080fd5b805182511461082e57600080fd5b60005b82518160ff16101561087d5761087484848360ff168151811061085057fe5b6020026020010151848460ff168151811061086757fe5b6020026020010151610629565b50600101610831565b50505050565b60006020819052908152604090205481565b604051806040016040528060048152602001634542544360e01b81525081565b60006001600160a01b0383166108ca57600080fd5b6108d383610a43565b6108dc57600080fd5b336000908152602081905260409020546108fc908363ffffffff610a3416565b33600090815260208190526040808220929092556001600160a01b0385168152205461092e908363ffffffff610a2516565b6001600160a01b038416600081815260208181526040918290209390935580518581529051919233927fddf252ad1be2c89b69c2b068fc378daa952ba7f163c4a11628f55a4df523b3ef9281900390910190a350600192915050565b60ff8251111561099957600080fd5b80518251146109a757600080fd5b60005b82518160ff1610156109f5576109ec838260ff16815181106109c857fe5b6020026020010151838360ff16815181106109df57fe5b60200260200101516108b5565b506001016109aa565b505050565b6001600160a01b03918216600090815260016020908152604080832093909416825291909152205490565b80820182811161061857600080fd5b80820382811061061857600080fd5b3b159056fea265627a7a723158208b22eafb2e45e5f34494e852237a59510f962bbf3850151149b7e97ac0bbfbd964736f6c63430005100032",
  "source": "/**\n *Submitted for verification at Etherscan.io on 2017-10-29\n*/\n\npragma solidity >0.4.99 <0.6.0;\n\nlibrary SafeMathMod {// Partial SafeMath Library\n\n    function sub(uint256 a, uint256 b) internal pure returns (uint256 c) {\n        require((c = a - b) < a);\n    }\n\n    function add(uint256 a, uint256 b) internal pure returns (uint256 c) {\n        require((c = a + b) > a);\n    }\n}\n\ncontract EBTC {//is inherently ERC20\n    using SafeMathMod for uint256;\n\n    /**\n    * @constant name The name of the token\n    * @constant symbol  The symbol used to display the currency\n    * @constant decimals  The number of decimals used to dispay a balance\n    * @constant totalSupply The total number of tokens times 10^ of the number of decimals\n    * @constant MAX_UINT256 Magic number for unlimited allowance\n    * @storage balanceOf Holds the balances of all token holders\n    * @storage allowed Holds the allowable balance to be transferable by another address.\n    */\n\n    string constant public name = \"eBTC\";\n\n    string constant public symbol = \"EBTC\";\n\n    uint8 constant public decimals = 8;\n\n    uint256 constant public totalSupply = 21000000e8;\n\n    uint256 constant private MAX_UINT256 = 0xFFFFFFFFFFFFFFFFFFFFFFFFFFFFFFFFFFFFFFFFFFFFFFFFFFFFFFFFFFFFFFFF;\n\n    mapping (address => uint256) public balanceOf;\n\n    mapping (address => mapping (address => uint256)) public allowed;\n\n    event Transfer(address indexed _from, address indexed _to, uint256 _value);\n\n    event TransferFrom(address indexed _spender, address indexed _from, address indexed _to, uint256 _value);\n\n    event Approval(address indexed _owner, address indexed _spender, uint256 _value);\n\n    constructor() public {balanceOf[msg.sender] = totalSupply;}\n\n    /**\n    * @notice send `_value` token to `_to` from `msg.sender`\n    *\n    * @param _to The address of the recipient\n    * @param _value The amount of token to be transferred\n    * @return Whether the transfer was successful or not\n    */\n    function transfer(address _to, uint256 _value) public returns (bool success) {\n        /* Ensures that tokens are not sent to address \"0x0\" */\n        require(_to != address(0));\n        /* Prevents sending tokens directly to contracts. */\n        require(isNotContract(_to));\n\n        /* SafeMathMOd.sub will throw if there is not enough balance and if the transfer value is 0. */\n        balanceOf[msg.sender] = balanceOf[msg.sender].sub(_value);\n        balanceOf[_to] = balanceOf[_to].add(_value);\n        emit Transfer(msg.sender, _to, _value);\n        return true;\n    }\n\n    /**\n    * @notice send `_value` token to `_to` from `_from` on the condition it is approved by `_from`\n    *\n    * @param _from The address of the sender\n    * @param _to The address of the recipient\n    * @param _value The amount of token to be transferred\n    * @return Whether the transfer was successful or not\n    */\n    function transferFrom(address _from, address _to, uint256 _value) public returns (bool success) {\n        /* Ensures that tokens are not sent to address \"0x0\" */\n        require(_to != address(0));\n        /* Ensures tokens are not sent to this contract */\n        require(_to != address(this));\n        \n        uint256 allowance = allowed[_from][msg.sender];\n        /* Ensures sender has enough available allowance OR sender is balance holder allowing single transsaction send to contracts*/\n        require(_value <= allowance || _from == msg.sender);\n\n        /* Use SafeMathMod to add and subtract from the _to and _from addresses respectively. Prevents under/overflow and 0 transfers */\n        balanceOf[_to] = balanceOf[_to].add(_value);\n        balanceOf[_from] = balanceOf[_from].sub(_value);\n\n        /* Only reduce allowance if not MAX_UINT256 in order to save gas on unlimited allowance */\n        /* Balance holder does not need allowance to send from self. */\n        if (allowed[_from][msg.sender] != MAX_UINT256 && _from != msg.sender) {\n            allowed[_from][msg.sender] = allowed[_from][msg.sender].sub(_value);\n        }\n        emit Transfer(_from, _to, _value);\n        return true;\n    }\n\n    /**\n    * @dev Transfer the specified amounts of tokens to the specified addresses.\n    * @dev Be aware that there is no check for duplicate recipients.\n    *\n    * @param _toAddresses Receiver addresses.\n    * @param _amounts Amounts of tokens that will be transferred.\n    */\n    function multiPartyTransfer(address[] memory _toAddresses, uint256[] memory _amounts) public {\n        /* Ensures _toAddresses array is less than or equal to 255 */\n        require(_toAddresses.length <= 255);\n        /* Ensures _toAddress and _amounts have the same number of entries. */\n        require(_toAddresses.length == _amounts.length);\n\n        for (uint8 i = 0; i < _toAddresses.length; i++) {\n            transfer(_toAddresses[i], _amounts[i]);\n        }\n    }\n\n    /**\n    * @dev Transfer the specified amounts of tokens to the specified addresses from authorized balance of sender.\n    * @dev Be aware that there is no check for duplicate recipients.\n    *\n    * @param _from The address of the sender\n    * @param _toAddresses The addresses of the recipients (MAX 255)\n    * @param _amounts The amounts of tokens to be transferred\n    */\n    function multiPartyTransferFrom(address _from, address[] memory _toAddresses, uint256[] memory _amounts) public {\n        /* Ensures _toAddresses array is less than or equal to 255 */\n        require(_toAddresses.length <= 255);\n        /* Ensures _toAddress and _amounts have the same number of entries. */\n        require(_toAddresses.length == _amounts.length);\n\n        for (uint8 i = 0; i < _toAddresses.length; i++) {\n            transferFrom(_from, _toAddresses[i], _amounts[i]);\n        }\n    }\n\n    /**\n    * @notice `msg.sender` approves `_spender` to spend `_value` tokens\n    *\n    * @param _spender The address of the account able to transfer the tokens\n    * @param _value The amount of tokens to be approved for transfer\n    * @return Whether the approval was successful or not\n    */\n    function approve(address _spender, uint256 _value) public returns (bool success) {\n        /* Ensures address \"0x0\" is not assigned allowance. */\n        require(_spender != address(0));\n\n        allowed[msg.sender][_spender] = _value;\n        emit Approval(msg.sender, _spender, _value);\n        return true;\n    }\n\n    /**\n    * @param _owner The address of the account owning tokens\n    * @param _spender The address of the account able to transfer the tokens\n    * @return Amount of remaining tokens allowed to spent\n    */\n    function allowance(address _owner, address _spender) public view returns (uint256 remaining) {\n        remaining = allowed[_owner][_spender];\n    }\n\n    function isNotContract(address _addr) private view returns (bool) {\n        uint length;\n        assembly {\n        /* retrieve the size of the code on target address, this needs assembly */\n        length := extcodesize(_addr)\n        }\n        return (length == 0);\n    }\n\n    // revert on eth transfers to this contract\n    function() external payable {revert();}\n}",
  "sourcePath": "/home/ubuntu/UMC-proj/contracts/EBTC.sol",
  "compiler": {
    "name": "solc",
    "version": "0.5.16+commit.9c3226ce.Emscripten.clang"
  },
  "schemaVersion": "3.0.23",
  "updatedAt": "2020-04-19T17:12:19.365Z",
  "networkType": "ethereum",
  "devdoc": {
    "methods": {
      "allowance(address,address)": {
        "params": {
          "_owner": "The address of the account owning tokens",
          "_spender": "The address of the account able to transfer the tokens"
        },
        "return": "Amount of remaining tokens allowed to spent"
      },
      "approve(address,uint256)": {
        "params": {
          "_spender": "The address of the account able to transfer the tokens",
          "_value": "The amount of tokens to be approved for transfer"
        },
        "return": "Whether the approval was successful or not"
      },
      "multiPartyTransfer(address[],uint256[])": {
        "details": "Transfer the specified amounts of tokens to the specified addresses.Be aware that there is no check for duplicate recipients.",
        "params": {
          "_amounts": "Amounts of tokens that will be transferred.",
          "_toAddresses": "Receiver addresses."
        }
      },
      "multiPartyTransferFrom(address,address[],uint256[])": {
        "details": "Transfer the specified amounts of tokens to the specified addresses from authorized balance of sender.Be aware that there is no check for duplicate recipients.",
        "params": {
          "_amounts": "The amounts of tokens to be transferred",
          "_from": "The address of the sender",
          "_toAddresses": "The addresses of the recipients (MAX 255)"
        }
      },
      "transfer(address,uint256)": {
        "params": {
          "_to": "The address of the recipient",
          "_value": "The amount of token to be transferred"
        },
        "return": "Whether the transfer was successful or not"
      },
      "transferFrom(address,address,uint256)": {
        "params": {
          "_from": "The address of the sender",
          "_to": "The address of the recipient",
          "_value": "The amount of token to be transferred"
        },
        "return": "Whether the transfer was successful or not"
      }
    }
  },
  "userdoc": {
    "methods": {
      "approve(address,uint256)": {
        "notice": "`msg.sender` approves `_spender` to spend `_value` tokens"
      },
      "transfer(address,uint256)": {
        "notice": "send `_value` token to `_to` from `msg.sender`"
      },
      "transferFrom(address,address,uint256)": {
        "notice": "send `_value` token to `_to` from `_from` on the condition it is approved by `_from`"
      }
    }
  }
}