{
  "contractName": "ERC1820Implementer",
  "abi": [
    {
      "constant": true,
      "inputs": [
        {
          "internalType": "bytes32",
          "name": "interfaceHash",
          "type": "bytes32"
        },
        {
          "internalType": "address",
          "name": "account",
          "type": "address"
        }
      ],
      "name": "canImplementInterfaceForAddress",
      "outputs": [
        {
          "internalType": "bytes32",
          "name": "",
          "type": "bytes32"
        }
      ],
      "payable": false,
      "stateMutability": "view",
      "type": "function"
    }
  ],
  "bytecode": "0x608060405234801561001057600080fd5b50610110806100206000396000f3fe6080604052348015600f57600080fd5b506004361060285760003560e01c8063249cb3fa14602d575b600080fd5b605660048036036040811015604157600080fd5b50803590602001356001600160a01b03166068565b60408051918252519081900360200190f35b6000828152602081815260408083206001600160a01b038516845290915281205460ff16609557600060d4565b604051602001808073455243313832305f4143434550545f4d4147494360601b8152506014019050604051602081830303815290604052805190602001205b939250505056fea265627a7a72315820275b5106b0a874a415c0f8574626e54e9933e1e93509bb4aa9452685dd4b0f7c64736f6c63430005100032",
  "source": "pragma solidity ^0.5.0;\n\nimport \"./IERC1820Implementer.sol\";\n\n/**\n * @dev Implementation of the {IERC1820Implementer} interface.\n *\n * Contracts may inherit from this and call {_registerInterfaceForAddress} to\n * declare their willingness to be implementers.\n * {IERC1820Registry-setInterfaceImplementer} should then be called for the\n * registration to be complete.\n */\ncontract ERC1820Implementer is IERC1820Implementer {\n    bytes32 constant private ERC1820_ACCEPT_MAGIC = keccak256(abi.encodePacked(\"ERC1820_ACCEPT_MAGIC\"));\n\n    mapping(bytes32 => mapping(address => bool)) private _supportedInterfaces;\n\n    /**\n     * See {IERC1820Implementer-canImplementInterfaceForAddress}.\n     */\n    function canImplementInterfaceForAddress(bytes32 interfaceHash, address account) external view returns (bytes32) {\n        return _supportedInterfaces[interfaceHash][account] ? ERC1820_ACCEPT_MAGIC : bytes32(0x00);\n    }\n\n    /**\n     * @dev Declares the contract as willing to be an implementer of\n     * `interfaceHash` for `account`.\n     *\n     * See {IERC1820Registry-setInterfaceImplementer} and\n     * {IERC1820Registry-interfaceHash}.\n     */\n    function _registerInterfaceForAddress(bytes32 interfaceHash, address account) internal {\n        _supportedInterfaces[interfaceHash][account] = true;\n    }\n}\n",
  "sourcePath": "@openzeppelin/contracts/introspection/ERC1820Implementer.sol",
  "compiler": {
    "name": "solc",
    "version": "0.5.16+commit.9c3226ce.Emscripten.clang"
  },
  "schemaVersion": "3.0.23",
  "updatedAt": "2020-04-18T10:43:19.590Z",
  "devdoc": {
    "details": "Implementation of the {IERC1820Implementer} interface. * Contracts may inherit from this and call {_registerInterfaceForAddress} to declare their willingness to be implementers. {IERC1820Registry-setInterfaceImplementer} should then be called for the registration to be complete.",
    "methods": {}
  },
  "userdoc": {
    "methods": {
      "canImplementInterfaceForAddress(bytes32,address)": {
        "notice": "See {IERC1820Implementer-canImplementInterfaceForAddress}."
      }
    }
  }
}