{
  "contractName": "SwapContract",
  "abi": [
    {
      "inputs": [],
      "payable": true,
      "stateMutability": "payable",
      "type": "constructor"
    },
    {
      "anonymous": false,
      "inputs": [
        {
          "indexed": true,
          "internalType": "address",
          "name": "previousOwner",
          "type": "address"
        },
        {
          "indexed": true,
          "internalType": "address",
          "name": "newOwner",
          "type": "address"
        }
      ],
      "name": "OwnershipTransferred",
      "type": "event"
    },
    {
      "constant": true,
      "inputs": [
        {
          "internalType": "uint256",
          "name": "",
          "type": "uint256"
        }
      ],
      "name": "entityStructs",
      "outputs": [
        {
          "internalType": "address",
          "name": "entityAddress",
          "type": "address"
        },
        {
          "internalType": "uint256",
          "name": "entityData",
          "type": "uint256"
        },
        {
          "internalType": "uint256",
          "name": "updateTime",
          "type": "uint256"
        }
      ],
      "payable": false,
      "stateMutability": "view",
      "type": "function"
    },
    {
      "constant": true,
      "inputs": [],
      "name": "isOwner",
      "outputs": [
        {
          "internalType": "bool",
          "name": "",
          "type": "bool"
        }
      ],
      "payable": false,
      "stateMutability": "view",
      "type": "function"
    },
    {
      "constant": true,
      "inputs": [],
      "name": "owner",
      "outputs": [
        {
          "internalType": "address",
          "name": "",
          "type": "address"
        }
      ],
      "payable": false,
      "stateMutability": "view",
      "type": "function"
    },
    {
      "constant": false,
      "inputs": [],
      "name": "renounceOwnership",
      "outputs": [],
      "payable": false,
      "stateMutability": "nonpayable",
      "type": "function"
    },
    {
      "constant": false,
      "inputs": [
        {
          "internalType": "address",
          "name": "newOwner",
          "type": "address"
        }
      ],
      "name": "transferOwnership",
      "outputs": [],
      "payable": false,
      "stateMutability": "nonpayable",
      "type": "function"
    },
    {
      "constant": false,
      "inputs": [
        {
          "internalType": "uint256",
          "name": "_minimumDeositAmount",
          "type": "uint256"
        },
        {
          "internalType": "uint256",
          "name": "_maximumDeositAmount",
          "type": "uint256"
        },
        {
          "internalType": "bool",
          "name": "_swapEnable",
          "type": "bool"
        }
      ],
      "name": "setAdminParams",
      "outputs": [],
      "payable": false,
      "stateMutability": "nonpayable",
      "type": "function"
    },
    {
      "constant": false,
      "inputs": [
        {
          "internalType": "bool",
          "name": "bEnable",
          "type": "bool"
        }
      ],
      "name": "setSwapEnable",
      "outputs": [
        {
          "internalType": "bool",
          "name": "",
          "type": "bool"
        }
      ],
      "payable": false,
      "stateMutability": "nonpayable",
      "type": "function"
    },
    {
      "constant": false,
      "inputs": [
        {
          "internalType": "address",
          "name": "oldTokenAddress",
          "type": "address"
        },
        {
          "internalType": "address",
          "name": "newTokenAddress",
          "type": "address"
        }
      ],
      "name": "setTokenAddress",
      "outputs": [
        {
          "internalType": "bool",
          "name": "",
          "type": "bool"
        }
      ],
      "payable": false,
      "stateMutability": "nonpayable",
      "type": "function"
    },
    {
      "constant": true,
      "inputs": [],
      "name": "getEntityCount",
      "outputs": [
        {
          "internalType": "uint256",
          "name": "",
          "type": "uint256"
        }
      ],
      "payable": false,
      "stateMutability": "view",
      "type": "function"
    },
    {
      "constant": true,
      "inputs": [],
      "name": "getTotalDepositedToken",
      "outputs": [
        {
          "internalType": "uint256",
          "name": "",
          "type": "uint256"
        }
      ],
      "payable": false,
      "stateMutability": "view",
      "type": "function"
    },
    {
      "constant": true,
      "inputs": [],
      "name": "getTotalSwappedToken",
      "outputs": [
        {
          "internalType": "uint256",
          "name": "",
          "type": "uint256"
        }
      ],
      "payable": false,
      "stateMutability": "view",
      "type": "function"
    },
    {
      "constant": true,
      "inputs": [
        {
          "internalType": "uint256",
          "name": "index",
          "type": "uint256"
        }
      ],
      "name": "getEntity",
      "outputs": [
        {
          "internalType": "uint256",
          "name": "",
          "type": "uint256"
        },
        {
          "internalType": "address",
          "name": "",
          "type": "address"
        },
        {
          "internalType": "uint256",
          "name": "",
          "type": "uint256"
        },
        {
          "internalType": "uint256",
          "name": "",
          "type": "uint256"
        }
      ],
      "payable": false,
      "stateMutability": "view",
      "type": "function"
    },
    {
      "constant": true,
      "inputs": [
        {
          "internalType": "address",
          "name": "addr",
          "type": "address"
        }
      ],
      "name": "getEntityByAddress",
      "outputs": [
        {
          "internalType": "uint256",
          "name": "",
          "type": "uint256"
        },
        {
          "internalType": "address",
          "name": "",
          "type": "address"
        },
        {
          "internalType": "uint256",
          "name": "",
          "type": "uint256"
        },
        {
          "internalType": "uint256",
          "name": "",
          "type": "uint256"
        }
      ],
      "payable": false,
      "stateMutability": "view",
      "type": "function"
    },
    {
      "constant": true,
      "inputs": [
        {
          "internalType": "uint256",
          "name": "stIndex",
          "type": "uint256"
        },
        {
          "internalType": "uint256",
          "name": "edIndex",
          "type": "uint256"
        }
      ],
      "name": "getTransaction",
      "outputs": [
        {
          "internalType": "uint256[]",
          "name": "ids",
          "type": "uint256[]"
        },
        {
          "internalType": "address[]",
          "name": "addr",
          "type": "address[]"
        },
        {
          "internalType": "uint256[]",
          "name": "amounts",
          "type": "uint256[]"
        },
        {
          "internalType": "uint256[]",
          "name": "updates",
          "type": "uint256[]"
        }
      ],
      "payable": false,
      "stateMutability": "view",
      "type": "function"
    },
    {
      "constant": true,
      "inputs": [],
      "name": "getMinimumDepositAmount",
      "outputs": [
        {
          "internalType": "uint256",
          "name": "",
          "type": "uint256"
        }
      ],
      "payable": false,
      "stateMutability": "view",
      "type": "function"
    },
    {
      "constant": true,
      "inputs": [],
      "name": "getMaximumDepositAmount",
      "outputs": [
        {
          "internalType": "uint256",
          "name": "",
          "type": "uint256"
        }
      ],
      "payable": false,
      "stateMutability": "view",
      "type": "function"
    },
    {
      "constant": true,
      "inputs": [],
      "name": "getSwapEnable",
      "outputs": [
        {
          "internalType": "bool",
          "name": "",
          "type": "bool"
        }
      ],
      "payable": false,
      "stateMutability": "view",
      "type": "function"
    },
    {
      "constant": true,
      "inputs": [
        {
          "internalType": "address",
          "name": "addr",
          "type": "address"
        }
      ],
      "name": "getEBTCBalance",
      "outputs": [
        {
          "internalType": "uint256",
          "name": "",
          "type": "uint256"
        }
      ],
      "payable": false,
      "stateMutability": "view",
      "type": "function"
    },
    {
      "constant": true,
      "inputs": [
        {
          "internalType": "address",
          "name": "addr",
          "type": "address"
        }
      ],
      "name": "getUMCBalance",
      "outputs": [
        {
          "internalType": "uint256",
          "name": "",
          "type": "uint256"
        }
      ],
      "payable": false,
      "stateMutability": "view",
      "type": "function"
    },
    {
      "constant": false,
      "inputs": [
        {
          "internalType": "uint256",
          "name": "_value",
          "type": "uint256"
        }
      ],
      "name": "placeDeposit",
      "outputs": [
        {
          "internalType": "bool",
          "name": "",
          "type": "bool"
        }
      ],
      "payable": false,
      "stateMutability": "nonpayable",
      "type": "function"
    },
    {
      "constant": false,
      "inputs": [
        {
          "internalType": "address",
          "name": "entityAddress",
          "type": "address"
        },
        {
          "internalType": "uint256",
          "name": "entityData",
          "type": "uint256"
        }
      ],
      "name": "depositEntity",
      "outputs": [
        {
          "internalType": "bool",
          "name": "success",
          "type": "bool"
        }
      ],
      "payable": false,
      "stateMutability": "nonpayable",
      "type": "function"
    },
    {
      "constant": true,
      "inputs": [
        {
          "internalType": "address",
          "name": "entityAddress",
          "type": "address"
        }
      ],
      "name": "isEntity",
      "outputs": [
        {
          "internalType": "bool",
          "name": "isIndeed",
          "type": "bool"
        }
      ],
      "payable": false,
      "stateMutability": "view",
      "type": "function"
    },
    {
      "constant": false,
      "inputs": [
        {
          "internalType": "address",
          "name": "entityAddress",
          "type": "address"
        },
        {
          "internalType": "uint256",
          "name": "entityData",
          "type": "uint256"
        }
      ],
      "name": "newEntity",
      "outputs": [
        {
          "internalType": "bool",
          "name": "",
          "type": "bool"
        }
      ],
      "payable": false,
      "stateMutability": "nonpayable",
      "type": "function"
    }
  ],
  "bytecode": "0x608060405260006100176001600160e01b0361008c16565b600080546001600160a01b0319166001600160a01b0383169081178255604051929350917f8be0079c531659141344cd1fd0a4f28419497f9722a3daafe3b4186f6b6457e0908290a350655af3107a40006004556305f5e100600355600060058190556006556007805460ff19169055610090565b3390565b6115f18061009f6000396000f3fe608060405234801561001057600080fd5b506004361061014d5760003560e01c8063957431f3116100c3578063c7afe9f21161007c578063c7afe9f21461048d578063d599fdd4146104bb578063de4303bc146104e7578063e25fb432146104ef578063e40ffe001461051a578063f2fde38b146105395761014d565b8063957431f3146103c05780639933d64a146103c85780639c1b24b1146103d0578063b0477dd8146103f6578063b35600391461041c578063b3a27842146104705761014d565b806361a97ed41161011557806361a97ed4146102105780636d02556914610218578063715018a6146102445780637303f6ce1461024e5780638da5cb5b146103945780638f32d59b146103b85761014d565b806314887c581461015257806318d6676c1461018c5780631eddb626146101d157806333923862146101eb5780635d1b45b514610208575b600080fd5b6101786004803603602081101561016857600080fd5b50356001600160a01b031661055f565b604080519115158252519081900360200190f35b6101a9600480360360208110156101a257600080fd5b5035610581565b604080516001600160a01b039094168452602084019290925282820152519081900360600190f35b6101d96105bb565b60408051918252519081900360200190f35b6101786004803603602081101561020157600080fd5b50356105c1565b6101d9610843565b610178610849565b6101786004803603604081101561022e57600080fd5b506001600160a01b038135169060200135610852565b61024c6109a6565b005b6102716004803603604081101561026457600080fd5b5080359060200135610a37565b6040518080602001806020018060200180602001858103855289818151815260200191508051906020019060200280838360005b838110156102bd5781810151838201526020016102a5565b50505050905001858103845288818151815260200191508051906020019060200280838360005b838110156102fc5781810151838201526020016102e4565b50505050905001858103835287818151815260200191508051906020019060200280838360005b8381101561033b578181015183820152602001610323565b50505050905001858103825286818151815260200191508051906020019060200280838360005b8381101561037a578181015183820152602001610362565b505050509050019850505050505050505060405180910390f35b61039c610cce565b604080516001600160a01b039092168252519081900360200190f35b610178610cdd565b6101d9610d01565b6101d9610d07565b6101d9600480360360208110156103e657600080fd5b50356001600160a01b0316610d0d565b6101d96004803603602081101561040c57600080fd5b50356001600160a01b0316610d90565b6104426004803603602081101561043257600080fd5b50356001600160a01b0316610de1565b604080519485526001600160a01b039093166020850152838301919091526060830152519081900360800190f35b6104426004803603602081101561048657600080fd5b5035610f18565b610178600480360360408110156104a357600080fd5b506001600160a01b0381358116916020013516610fda565b610178600480360360408110156104d157600080fd5b506001600160a01b038135169060200135611056565b6101d96111c8565b61024c6004803603606081101561050557600080fd5b508035906020810135906040013515156111ce565b6101786004803603602081101561053057600080fd5b5035151561126f565b61024c6004803603602081101561054f57600080fd5b50356001600160a01b03166112cf565b6001600160a01b03811660009081526009602052604090205460ff165b919050565b6008818154811061058e57fe5b60009182526020909120600390910201805460018201546002909201546001600160a01b03909116925083565b60045490565b60075460009060ff166105d65750600061057c565b6003548210806105e7575060045482115b156105f45750600061057c565b600061060b836404a817c80063ffffffff61132216565b6002549091506001600160a01b03166370a08231610627610cce565b6040518263ffffffff1660e01b815260040180826001600160a01b03166001600160a01b0316815260200191505060206040518083038186803b15801561066d57600080fd5b505afa158015610681573d6000803e3d6000fd5b505050506040513d602081101561069757600080fd5b50518111156106aa57600091505061057c565b600154604080516323b872dd60e01b81523360048201523060248201526044810186905290516001600160a01b03909216916323b872dd916064808201926020929091908290030181600087803b15801561070457600080fd5b505af1158015610718573d6000803e3d6000fd5b505050506040513d602081101561072e57600080fd5b505161073e57600091505061057c565b6107473361055f565b15610769576107563384610852565b61076457600091505061057c565b610781565b6107733384611056565b61078157600091505061057c565b6002546001600160a01b03166362ad1b8361079a610cce565b6040805160e084811b6001600160e01b03191682526001600160a01b039390931660048201523360248201526044810186905260a06064820152600060a48201819052608482019390935260e481018390529051610124808301939282900301818387803b15801561080b57600080fd5b505af115801561081f573d6000803e3d6000fd5b5050600654610837925090508263ffffffff61138216565b60065550600192915050565b60085490565b60075460ff1690565b600061085d8361055f565b6108ae576040805162461bcd60e51b815260206004820152601960248201527f656e746974794164647265737320697320696e76616c69642e00000000000000604482015290519081900360640190fd5b6001600160a01b0383166000818152600a602052604090205460088054919291839081106108d857fe5b60009182526020909120600390910201546001600160a01b031614610944576040805162461bcd60e51b815260206004820152601760248201527f656e7469747941646472657373206d69736d617463682e000000000000000000604482015290519081900360640190fd5b826008828154811061095257fe5b60009182526020909120600160039092020101805490910190556005805484019055600880544291908390811061098557fe5b90600052602060002090600302016002018190555060019150505b92915050565b6109ae610cdd565b6109ed576040805162461bcd60e51b81526020600482018190526024820152600080516020611559833981519152604482015290519081900360640190fd5b600080546040516001600160a01b03909116907f8be0079c531659141344cd1fd0a4f28419497f9722a3daafe3b4186f6b6457e0908390a3600080546001600160a01b0319169055565b60608080806008548610610a7c5760405162461bcd60e51b815260040180806020018281038252602281526020018061159b6022913960400191505060405180910390fd5b6008548510610abc5760405162461bcd60e51b81526004018080602001828103825260228152602001806115796022913960400191505060405180910390fd5b84861115610b11576040805162461bcd60e51b815260206004820152601f60248201527f7374496e6465782069732067726561746572207468616e206564496e64657800604482015290519081900360640190fd5b604080516001888803018082526020808202830101909252818015610b40578160200160208202803883390190505b50945080604051908082528060200260200182016040528015610b6d578160200160208202803883390190505b50935080604051908082528060200260200182016040528015610b9a578160200160208202803883390190505b50925080604051908082528060200260200182016040528015610bc7578160200160208202803883390190505b50915060005b81811015610cc357808801868281518110610be457fe5b602002602001018181525050600881890181548110610bff57fe5b600091825260209091206003909102015485516001600160a01b0390911690869083908110610c2a57fe5b60200260200101906001600160a01b031690816001600160a01b031681525050600881890181548110610c5957fe5b906000526020600020906003020160010154848281518110610c7757fe5b602002602001018181525050600881890181548110610c9257fe5b906000526020600020906003020160020154838281518110610cb057fe5b6020908102919091010152600101610bcd565b505092959194509250565b6000546001600160a01b031690565b600080546001600160a01b0316610cf26113dc565b6001600160a01b031614905090565b60065490565b60055490565b600154604080516370a0823160e01b81526001600160a01b038481166004830152915160009392909216916370a0823191602480820192602092909190829003018186803b158015610d5e57600080fd5b505afa158015610d72573d6000803e3d6000fd5b505050506040513d6020811015610d8857600080fd5b505192915050565b600254604080516370a0823160e01b81526001600160a01b038481166004830152915160009392909216916370a0823191602480820192602092909190829003018186803b158015610d5e57600080fd5b6001600160a01b03811660009081526009602052604081205481908190819060ff16610e45576040805162461bcd60e51b815260206004820152600e60248201526d756e6b6f776e206164647265737360901b604482015290519081900360640190fd5b6001600160a01b0385166000908152600a60205260409020546008548110610e9e5760405162461bcd60e51b81526004018080602001828103825260278152602001806115116027913960400191505060405180910390fd5b8060088281548110610eac57fe5b6000918252602090912060039091020154600880546001600160a01b039092169184908110610ed757fe5b90600052602060002090600302016001015460088481548110610ef657fe5b9060005260206000209060030201600201549450945094509450509193509193565b6000806000806008805490508510610f615760405162461bcd60e51b81526004018080602001828103825260278152602001806115116027913960400191505060405180910390fd5b8460088681548110610f6f57fe5b6000918252602090912060039091020154600880546001600160a01b039092169188908110610f9a57fe5b90600052602060002090600302016001015460088881548110610fb957fe5b90600052602060002090600302016002015493509350935093509193509193565b6000610fe4610cdd565b611023576040805162461bcd60e51b81526020600482018190526024820152600080516020611559833981519152604482015290519081900360640190fd5b50600180546001600160a01b038085166001600160a01b0319928316178355600280549185169190921617905592915050565b60006110618361055f565b156110b3576040805162461bcd60e51b815260206004820152601760248201527f656e74697479416464726573732069732065786973742e000000000000000000604482015290519081900360640190fd5b6110bb611480565b6001600160a01b0384168152602081018390526005546110e1908463ffffffff61138216565b6005554260408281019182526001600160a01b039586166000818152600960209081528382208054600160ff19909116811790915560088054808301825590845287517ff3f7a9fe364faab93b216da50a3214154f22a0a2b415b23a84c8169e8b636ee36003830290810180546001600160a01b03191692909d1691909117909b55968201517ff3f7a9fe364faab93b216da50a3214154f22a0a2b415b23a84c8169e8b636ee48b015594517ff3f7a9fe364faab93b216da50a3214154f22a0a2b415b23a84c8169e8b636ee590990198909855908152600a909652909420555090919050565b60035490565b6111d6610cdd565b611215576040805162461bcd60e51b81526020600482018190526024820152600080516020611559833981519152604482015290519081900360640190fd5b8183106112535760405162461bcd60e51b81526004018080602001828103825260408152602001806114d16040913960400191505060405180910390fd5b6003929092556004556007805460ff1916911515919091179055565b6000611279610cdd565b6112b8576040805162461bcd60e51b81526020600482018190526024820152600080516020611559833981519152604482015290519081900360640190fd5b506007805460ff1916911515919091179055600190565b6112d7610cdd565b611316576040805162461bcd60e51b81526020600482018190526024820152600080516020611559833981519152604482015290519081900360640190fd5b61131f816113e0565b50565b600082611331575060006109a0565b8282028284828161133e57fe5b041461137b5760405162461bcd60e51b81526004018080602001828103825260218152602001806115386021913960400191505060405180910390fd5b9392505050565b60008282018381101561137b576040805162461bcd60e51b815260206004820152601b60248201527f536166654d6174683a206164646974696f6e206f766572666c6f770000000000604482015290519081900360640190fd5b3390565b6001600160a01b0381166114255760405162461bcd60e51b81526004018080602001828103825260268152602001806114ab6026913960400191505060405180910390fd5b600080546040516001600160a01b03808516939216917f8be0079c531659141344cd1fd0a4f28419497f9722a3daafe3b4186f6b6457e091a3600080546001600160a01b0319166001600160a01b0392909216919091179055565b604051806060016040528060006001600160a01b031681526020016000815260200160008152509056fe4f776e61626c653a206e6577206f776e657220697320746865207a65726f20616464726573735f6d696e696d756d44656f736974416d6f756e742063616e27742062652067726561746572207468616e205f6d6178696d756d44656f736974416d6f756e742e696e6465782069732067726561746572207468616e206c656e677468206f662073747275637473536166654d6174683a206d756c7469706c69636174696f6e206f766572666c6f774f776e61626c653a2063616c6c6572206973206e6f7420746865206f776e65726564496e6465782069732067726561746572207468616e2061727261792073697a657374496e6465782069732067726561746572207468616e2061727261792073697a65a265627a7a72315820be26ddee6c90ecd29c1398e4e2455f63198e25de5ffd780684102c112469922064736f6c63430005100032",
  "source": "//pragma solidity ^0.5.0;\npragma solidity >0.4.99 <0.6.0;\nimport \"@openzeppelin/contracts/ownership/Ownable.sol\";        // set specific function for owner only\nimport \"@openzeppelin/contracts/token/ERC20/ERC20.sol\";\nimport \"@openzeppelin/contracts/math/SafeMath.sol\";            // safe mathematics functions\nimport \"@openzeppelin/contracts/token/ERC777/ERC777.sol\";\nimport \"@openzeppelin/contracts/cryptography/ECDSA.sol\";\n\ncontract SwapContract is Ownable{\n    using SafeMath for uint;\n    ERC20 private oldToken;\n    ERC777 private newToken;\n    uint private minimumDeposit;         // the minimum Deposit allowed\n    uint private maximumDeposit;         // the maximum Deposit allowed\n    uint private totalDepositedToken;\n    uint private totalSwappedToken;\n\n    bool private swapEnable;\n    /////////////////////////////////////////////////////////////////////////////////////////////////////////////////// data array\n    ///////////////////////////////////////////////////////////////////////////////////////////////////////////////////////////////////////////////////////////////////////////////////////////////////////\n    struct EntityStruct {\n    address entityAddress;\n    uint entityData;\n    uint updateTime ;\n    }\n    EntityStruct[] public entityStructs;\n    mapping(address => bool) knownEntity;\n    mapping(address => uint) rowEntity;\n\n    constructor() public payable {\n        // owner = msg.sender;         // set the owner of this contract to the creator of the contract\n        // oldToken = ERC20(_erc20Token);\n        // newToken = ERC777(_erc777Token);\n        maximumDeposit = 1000000 * (uint256(10) ** 8);\n        minimumDeposit = 1 * (uint256(10) ** 8);\n        totalDepositedToken = 0;\n        totalSwappedToken = 0;\n        swapEnable = false;\n    }\n\n    function setAdminParams(uint _minimumDeositAmount, uint _maximumDeositAmount, bool _swapEnable)  public onlyOwner {\n        require(_minimumDeositAmount < _maximumDeositAmount, \"_minimumDeositAmount can't be greater than _maximumDeositAmount.\");\n        minimumDeposit = _minimumDeositAmount;\n        maximumDeposit = _maximumDeositAmount;\n\t\tswapEnable = _swapEnable;\n    }\n    function setSwapEnable(bool bEnable)  external onlyOwner returns(bool){\n        swapEnable = bEnable;\n        return true;\n    }\n    function setTokenAddress(address oldTokenAddress, address newTokenAddress) external onlyOwner returns(bool){\n        oldToken = ERC20(oldTokenAddress);\n        newToken = ERC777(newTokenAddress);\n        return true;\n    }\n    function getEntityCount() public view returns(uint){\n        return entityStructs.length;\n    }\n    function getTotalDepositedToken() public view returns(uint){\n        return totalDepositedToken;\n    }\n    function getTotalSwappedToken() public view returns(uint){\n        return totalSwappedToken;\n    }\n\n    function getEntity(uint index) public view returns(uint, address, uint, uint){\n        require(index < entityStructs.length, \"index is greater than length of structs\");\n        return (index, entityStructs[index].entityAddress,entityStructs[index].entityData,entityStructs[index].updateTime);\n    }\n    function getEntityByAddress(address addr) public view returns(uint, address, uint, uint){\n        require(knownEntity[addr], \"unkown address\");\n        uint index = rowEntity[addr];\n        require(index < entityStructs.length, \"index is greater than length of structs\");\n        return (index,entityStructs[index].entityAddress, entityStructs[index].entityData,entityStructs[index].updateTime);\n    }\n    function getTransaction(uint stIndex, uint edIndex) public view returns(uint[] memory ids,\n    address[] memory addr,uint[] memory amounts,uint[] memory updates){\n        require(stIndex >= 0, \"stIndex is less than zero\");\n        require(stIndex < entityStructs.length, \"stIndex is greater than array size\");\n        require(edIndex >= 0, \"edIndex is less than zero\");\n        require(edIndex < entityStructs.length, \"edIndex is greater than array size\");\n        require(stIndex <= edIndex, \"stIndex is greater than edIndex\");\n        uint addressRegistryCount = edIndex - stIndex + 1;\n        ids = new uint[](addressRegistryCount);\n        addr = new address[](addressRegistryCount);\n        amounts = new uint[](addressRegistryCount);\n        updates = new uint[](addressRegistryCount);\n        for (uint i = 0; i < addressRegistryCount; i++) {\n            ids[i] = stIndex + i;\n            addr[i] = entityStructs[stIndex + i].entityAddress;\n            amounts[i] = entityStructs[stIndex + i].entityData;\n            updates[i] = entityStructs[stIndex + i].updateTime;\n        }\n        return (ids,addr,amounts,updates);\n    }\n\n    function getMinimumDepositAmount() public view returns(uint) {\n        return minimumDeposit;\n    }\n    function getMaximumDepositAmount() public view returns(uint) {\n        return maximumDeposit;\n    }\n    function getSwapEnable() public view returns(bool) {\n        return swapEnable;\n    }\n    function getEBTCBalance(address addr) public view returns(uint) {\n        return oldToken.balanceOf(addr);\n    }\n    function getUMCBalance(address addr) public view returns(uint) {\n        return newToken.balanceOf(addr);\n    }\n    ////public interfaces\n    function placeDeposit(uint _value) external returns (bool){\n        if(swapEnable == false) return false;\n        // check that the bet is within the min and max bet limits\n        if ((_value < minimumDeposit) || (_value > maximumDeposit)) return false;\n        uint256 amount = _value.mul(uint(2*10**10));\n        if (amount > newToken.balanceOf(owner())) {\n            return false;\n        }\n        // transfer the required tokens to this contract\n\n        if (!oldToken.transferFrom(msg.sender, address(this), _value)) return false;\n\n        //token transfered so can now create a user or update user balance\n        if(isEntity(msg.sender))\n        {\n            if(!depositEntity(msg.sender, _value)) return false ;\n        }\n        else{\n            if(!newEntity(msg.sender,_value)) return false;\n        }\n\n        newToken.operatorSend(owner(), msg.sender, amount, \"\", \"\");\n        totalSwappedToken = totalSwappedToken.add(amount);\n\n        return true;\n    }\n    function depositEntity(address entityAddress, uint entityData) public returns(bool success) {\n        require(isEntity(entityAddress), \"entityAddress is invalid.\");\n        uint rowNumber = rowEntity[entityAddress];\n        require(entityStructs[rowNumber].entityAddress == entityAddress, \"entityAddress mismatch.\");\n        entityStructs[rowNumber].entityData += entityData;\n        totalDepositedToken += entityData;\n        entityStructs[rowNumber].updateTime = now ;\n        return true;\n    }\n    function isEntity(address entityAddress) public view returns(bool isIndeed) {\n        return knownEntity[entityAddress];\n    }\n    function newEntity(address entityAddress, uint entityData) public returns(bool) {\n        require(!isEntity(entityAddress),\"entityAddress is exist.\");\n        EntityStruct memory _newEntity;\n        _newEntity.entityAddress = entityAddress;\n        _newEntity.entityData = entityData;\n        totalDepositedToken = totalDepositedToken.add(entityData);\n        _newEntity.updateTime = now;\n        knownEntity[entityAddress] = true;\n        rowEntity[entityAddress] = entityStructs.push(_newEntity) - 1;\n        return true;\n    }\n\n}",
  "sourcePath": "/home/ubuntu/UMC-proj/contracts/SwapContract.sol",
  "compiler": {
    "name": "solc",
    "version": "0.5.16+commit.9c3226ce.Emscripten.clang"
  },
  "schemaVersion": "3.0.23",
  "updatedAt": "2020-04-19T17:12:19.385Z",
  "networkType": "ethereum",
  "devdoc": {
    "methods": {
      "isOwner()": {
        "details": "Returns true if the caller is the current owner."
      },
      "owner()": {
        "details": "Returns the address of the current owner."
      },
      "renounceOwnership()": {
        "details": "Leaves the contract without owner. It will not be possible to call `onlyOwner` functions anymore. Can only be called by the current owner.     * NOTE: Renouncing ownership will leave the contract without an owner, thereby removing any functionality that is only available to the owner."
      },
      "transferOwnership(address)": {
        "details": "Transfers ownership of the contract to a new account (`newOwner`). Can only be called by the current owner."
      }
    }
  },
  "userdoc": {
    "methods": {
      "placeDeposit(uint256)": {
        "notice": "/public interfaces"
      }
    }
  }
}