{
  "contractName": "UMCSender",
  "abi": [
    {
      "anonymous": false,
      "inputs": [
        {
          "indexed": false,
          "internalType": "address",
          "name": "operator",
          "type": "address"
        },
        {
          "indexed": false,
          "internalType": "address",
          "name": "from",
          "type": "address"
        },
        {
          "indexed": false,
          "internalType": "address",
          "name": "to",
          "type": "address"
        },
        {
          "indexed": false,
          "internalType": "uint256",
          "name": "amount",
          "type": "uint256"
        },
        {
          "indexed": false,
          "internalType": "bytes",
          "name": "userData",
          "type": "bytes"
        },
        {
          "indexed": false,
          "internalType": "bytes",
          "name": "operatorData",
          "type": "bytes"
        }
      ],
      "name": "DoneStuff",
      "type": "event"
    },
    {
      "constant": true,
      "inputs": [],
      "name": "TOKENS_SENDER_INTERFACE_HASH",
      "outputs": [
        {
          "internalType": "bytes32",
          "name": "",
          "type": "bytes32"
        }
      ],
      "payable": false,
      "stateMutability": "view",
      "type": "function"
    },
    {
      "constant": true,
      "inputs": [
        {
          "internalType": "bytes32",
          "name": "interfaceHash",
          "type": "bytes32"
        },
        {
          "internalType": "address",
          "name": "account",
          "type": "address"
        }
      ],
      "name": "canImplementInterfaceForAddress",
      "outputs": [
        {
          "internalType": "bytes32",
          "name": "",
          "type": "bytes32"
        }
      ],
      "payable": false,
      "stateMutability": "view",
      "type": "function"
    },
    {
      "constant": false,
      "inputs": [
        {
          "internalType": "address",
          "name": "account",
          "type": "address"
        }
      ],
      "name": "senderFor",
      "outputs": [],
      "payable": false,
      "stateMutability": "nonpayable",
      "type": "function"
    },
    {
      "constant": false,
      "inputs": [
        {
          "internalType": "address",
          "name": "operator",
          "type": "address"
        },
        {
          "internalType": "address",
          "name": "from",
          "type": "address"
        },
        {
          "internalType": "address",
          "name": "to",
          "type": "address"
        },
        {
          "internalType": "uint256",
          "name": "amount",
          "type": "uint256"
        },
        {
          "internalType": "bytes",
          "name": "userData",
          "type": "bytes"
        },
        {
          "internalType": "bytes",
          "name": "operatorData",
          "type": "bytes"
        }
      ],
      "name": "tokensToSend",
      "outputs": [],
      "payable": false,
      "stateMutability": "nonpayable",
      "type": "function"
    }
  ],
  "bytecode": "0x608060405234801561001057600080fd5b506103cb806100206000396000f3fe608060405234801561001057600080fd5b506004361061004c5760003560e01c8063249cb3fa14610051578063669b05321461008f57806375ab978214610097578063d2de647414610183575b600080fd5b61007d6004803603604081101561006757600080fd5b50803590602001356001600160a01b03166101a9565b60408051918252519081900360200190f35b61007d61021e565b610181600480360360c08110156100ad57600080fd5b6001600160a01b03823581169260208101358216926040820135909216916060820135919081019060a0810160808201356401000000008111156100f057600080fd5b82018360208201111561010257600080fd5b8035906020019184600183028401116401000000008311171561012457600080fd5b91939092909160208101903564010000000081111561014257600080fd5b82018360208201111561015457600080fd5b8035906020019184600183028401116401000000008311171561017657600080fd5b509092509050610248565b005b6101816004803603602081101561019957600080fd5b50356001600160a01b0316610334565b6000828152602081815260408083206001600160a01b038516845290915281205460ff166101d8576000610217565b604051602001808073455243313832305f4143434550545f4d4147494360601b8152506014019050604051602081830303815290604052805190602001205b9392505050565b604080517122a9219b9b9baa37b5b2b739a9b2b73232b960711b8152905190819003601201902081565b7fa0a5a35754b3519ae614f00422ac62a6bc4608ccb722963aab00cb48c588ad72888888888888888860405180896001600160a01b03166001600160a01b03168152602001886001600160a01b03166001600160a01b03168152602001876001600160a01b03166001600160a01b0316815260200186815260200180602001806020018381038352878782818152602001925080828437600083820152601f01601f191690910184810383528581526020019050858580828437600083820152604051601f909101601f19169092018290039c50909a5050505050505050505050a15050505050505050565b604080517122a9219b9b9baa37b5b2b739a9b2b73232b960711b815290519081900360120190206103659082610368565b50565b6000918252602082815260408084206001600160a01b0390931684529190529020805460ff1916600117905556fea265627a7a723158205647e617b119575ac966784d601e416b1d95afcb4f2ee9fcf623841b3a59c28464736f6c63430005100032",
  "source": "pragma solidity >0.4.99 <0.6.0;\n\nimport \"@openzeppelin/contracts/token/ERC777/IERC777.sol\";\nimport \"@openzeppelin/contracts/introspection/IERC1820Registry.sol\";\nimport \"@openzeppelin/contracts/introspection/ERC1820Implementer.sol\";\nimport \"@openzeppelin/contracts/token/ERC777/IERC777Sender.sol\";\n\ncontract UMCSender is IERC777Sender, ERC1820Implementer {\n\n    bytes32 constant public TOKENS_SENDER_INTERFACE_HASH = keccak256(\"ERC777TokensSender\");\n\n    event DoneStuff(address operator, address from, address to, uint256 amount, bytes userData, bytes operatorData);\n\n    function senderFor(address account) public {\n        _registerInterfaceForAddress(TOKENS_SENDER_INTERFACE_HASH, account);\n    }\n\n    function tokensToSend(\n        address operator,\n        address from,\n        address to,\n        uint256 amount,\n        bytes calldata userData,\n        bytes calldata operatorData\n    ) external {\n\n        // do stuff\n        emit DoneStuff(operator, from, to, amount, userData, operatorData);\n    }\n}",
  "sourcePath": "/home/ubuntu/UMC-proj/contracts/UMCSender.sol",
  "compiler": {
    "name": "solc",
    "version": "0.5.16+commit.9c3226ce.Emscripten.clang"
  },
  "schemaVersion": "3.0.23",
  "updatedAt": "2020-04-18T10:43:19.557Z",
  "devdoc": {
    "methods": {}
  },
  "userdoc": {
    "methods": {
      "canImplementInterfaceForAddress(bytes32,address)": {
        "notice": "See {IERC1820Implementer-canImplementInterfaceForAddress}."
      }
    }
  }
}